:100000001CC036C035C034C033C032C031C030C06F
:100010002FC02EC02DC02CC02BC02AC029C028C084
:1000200001C3A0C2A2C2B6C2C4C2D2C2E0C2EEC262
:10003000A6C2AAC2F0C2A0C29CC211241FBECFE5B4
:10004000D2E0DEBFCDBF10E0A0E6B0E0EAE9FBE021
:1000500002C005900D92AA38B107D9F710E0AAE8BE
:10006000B0E001C01D92A53AB107E1F727D393C5CF
:10007000C7CFDB9ADB9808958830A0F4623090F403
:100080009BB321E030E0082E01C0220F0A94EAF76A
:10009000662319F0922B9BBB03C0209529232BBB11
:1000A00081E0089580E008959BB3982381E009F4EE
:1000B00080E00895D79ADF9A86B5806886BD81E092
:1000C00086BD80B7836280BF83B7816083BF1CBE5B
:1000D00081E00895D59AD6989BB390659BBB880F15
:1000E000880F88658DB98091A0008E7F8093A000D5
:1000F0008091A0008D7F8093A0008091A0008B7FD5
:100100008093A0008BEB8FB910928A0008959EB166
:100110009F7039F08091A00084608093A00080E0FF
:1001200008959091A0009D7F9093A0009091A000D1
:100130009B7F9093A0008FB98091A00082FB8827BD
:1001400080F991E08927089580918A00089580912F
:10015000A00081FFFCCF0895009886B1866886B91B
:1001600080E183B90895369A349BFECF85B1349AE5
:100170000895D39AD298D098D198D298089581E0D2
:1001800087B9F1DF80939600089517B8ECDF80936C
:100190008D00089582E287B9E6DF80938C00089590
:1001A0004F925F926F927F928F929F92AF92BF9287
:1001B000CF92DF92EF92FF920F931F93CF93DF9333
:1001C000EC018090710090907200A0907300B0904C
:1001D0007400C0906900D0906A00E0906B00F090CD
:1001E0006C0000919D0010919E0020916D00309157
:1001F0006E0040916F0050917000C501B4013DD375
:10020000A70196013AD32B013C01BE01882777FD57
:100210008095982FC9D39B01AC01C301B20150D482
:100220002B013C01B7FAB094B7F8B094A70196013E
:10023000C701B60122D39B01AC01C501B4011CD397
:100240004B015C01B801882777FD8095982FACD3CE
:100250009B01AC01C501B40133D49B01AC01C301C6
:10026000B2010BD34B015C0160919B0070919C002B
:10027000882777FD8095982F97D39B01AC01C70104
:10028000B6011ED49B01AC01C501B401F6D2209188
:100290009700309198004091990050919A00EDD2CA
:1002A00060939700709398008093990090939A00C0
:1002B00048D39B016D3371056CF080E090E0A0E7BE
:1002C000B2E48093970090939800A0939900B09324
:1002D0009A0058C06E3171052CF586E696E6A6EEBA
:1002E000BEE38093640090936500A0936600B09392
:1002F000670080E090E0A0ECBFE380936000909303
:100300006100A0936200B093630037FF55C0109264
:100310009700109298001092990010929A0020E095
:1003200030E04AC0683271058CF48FE892ECA5E7A2
:10033000BBE38093640090936500A0936600B09344
:1003400067008DEC9CECACE4BCE313C06C3371052E
:10035000C9F086EA9BE9A4E4BAE380936400909331
:100360006500A0936600B09367008CE792EFA0E36E
:10037000BBE38093600090936100A0936200B09310
:1003800063001AC08AEF9DEEABEEB9E38093640080
:1003900090936500A0936600B093670086EA9BE99E
:1003A000A4ECBAE38093600090936100A093620094
:1003B000B09363002CE330E010939C0000939B000B
:1003C000D0939E00C0939D00822FDF91CF911F910B
:1003D0000F91FF90EF90DF90CF90BF90AF909F90E4
:1003E0008F907F906F905F904F9008958F929F9223
:1003F000AF92BF92CF92DF92EF92FF92CF93DF93B3
:10040000EC01C0906400D0906500E0906600F09030
:10041000670020916000309161004091620050912E
:100420006300C701B60129D24B015C01BE018827D8
:1004300077FD8095982FB8D29B01AC01C501B4011E
:100440003FD34B015C01F7FAF094F7F8F094609118
:10045000930070919400882777FD8095982FA4D2FF
:100460009B01AC01C701B6012BD39B01AC01C501B7
:10047000B40103D220918F003091900040919100FF
:1004800050919200FAD16B017C015BD2862F161637
:100490004CF4C0928F00D0929000E0929100F092C4
:1004A00092000DC080E090E0A0E8BFE380938F0051
:1004B00090939000A0939100B093920081E0D0932C
:1004C0009400C0939300DF91CF91FF90EF90DF9065
:1004D000CF90BF90AF909F908F9008958CBF08955C
:1004E0001F93CF93DF93C5E7D0E049DE899190E079
:1004F00020919600821B910953DE80938E0016E0B6
:1005000044DE80918E0090E020918D00821B910945
:100510006DDF80938B008CBF8FED9EE20197F1F72A
:1005200000C00000115061F790E0C938D907E9F622
:10053000DF91CF911F910895EADD09DE80918A0055
:1005400008958091A300882309F46BC08091A200D4
:1005500090E0FC013197EC30F10508F060C0EF5EEF
:10056000FF4F099480918D0002C080919600CFDDED
:1005700056C080918B00FBCF8091A400F8CF809172
:10058000A10080938E004BC08091A1008550809384
:10059000680045C06091A10070E080E090E002D268
:1005A0006093710070937200809373009093740055
:1005B00036C06091A10070E080E090E0F3D16093DC
:1005C0006D0070936E0080936F009093700027C051
:1005D0006091A10070E080E090E0E4D1609364005D
:1005E00070936500809366009093670018C06091D7
:1005F000A10070E080E090E0D5D16093600070933E
:100600006100809362009093630009C08091A10013
:100610008093A40004C08091A10080938B0010926D
:10062000A30008951F920F920FB60F9211242F93DB
:100630003F934F935F936F937F938F939F93AF936A
:10064000BF93CF93EF93FF93F89480E48EB980919A
:10065000A00082608093A0008FB180938A00909167
:100660008900992381F08093A2009FEF980F923028
:1006700018F08B50823020F481E08093A30061DF7A
:100680001092890008C08093A100C1E0C093A3002C
:1006900058DFC09389007894FF91EF91CF91BF917B
:1006A000AF919F918F917F916F915F914F913F910A
:1006B0002F910F900FBE0F901F9018955ADD4CDDB3
:1006C000F9DC80E007DD1CBE80E28093A400789412
:1006D000C0E0D8E019E006E024E1722E3FE8C32E26
:1006E00032ECD32E35E7E32E3BE3F32E4DEC842E94
:1006F0004CEC942E4CE4A42E4CE3B42E57E0652E23
:1007000062E0562E73E0472EE4E03E2E8091A40076
:10071000803209F470C0803309F472C0803109F06E
:100720007EC0D09395002BDD10939500C11103C0BE
:10073000DB9AC1E002C0DB98C0E0809168002091A4
:100740009600CA9B23C090E050929500821B9109AD
:1007500027DD80938E004092950096E0292E15DDCE
:1007600080918E0090E020918D00821B91093EDEE9
:1007700080938B008CBF8FED9EE20197F1F700C054
:1007800000002A9461F730929500C0CF30E0281B1A
:1007900031090093950070928E00C0926400D0924F
:1007A0006500E0926600F09267008092600090928F
:1007B0006100A0926200B092630023303105BCF06A
:1007C00086E0282EE2DC80918E0090E020918D0062
:1007D000821B91090BDE80938B008CBF8FED9EE214
:1007E0000197F1F700C000002A9461F701C01CBE18
:1007F000609295008BCFDB9A80918B008CBF86CF67
:10080000DB981CBE109294001092930010929E00F0
:1008100010929D0081E17BDC10928A0077CFF894E2
:10082000DB9A8FE097E20197F1F700C00000DB98B8
:100830008FE097E20197F1F700C00000DB9A8FE0AC
:1008400097E20197F1F700C00000DB988FE097E294
:100850000197F1F700C00000DB9A8FE097E2019763
:10086000F1F700C00000DB988FE097E20197F1F705
:1008700000C0000078944ACF5058BB27AA270ED05A
:10088000E5C0D6D030F0DBD020F031F49F3F11F43A
:100890001EF4CBC00EF4E095E7FBC1C0E92FE7D012
:1008A00080F3BA17620773078407950718F071F48D
:1008B0009EF5FFC00EF4E0950B2EBA2FA02D0B0174
:1008C000B90190010C01CA01A0011124FF27591B95
:1008D00099F0593F50F4503E68F11A16F040A22F9B
:1008E000232F342F4427585FF3CF4695379527950C
:1008F000A795F0405395C9F77EF41F16BA0B620B0B
:10090000730B840BBAF09150A1F0FF0FBB1F661F51
:10091000771F881FC2F70EC0BA0F621F731F841F94
:1009200048F4879577956795B795F7959E3F08F0BA
:10093000B3CF9395880F08F09927EE0F9795879579
:10094000089504D06894B111B5C0089598D088F086
:100950009F5790F0B92F9927B751A0F0D1F0660FAB
:10096000771F881F991F1AF0BA95C9F712C0B130C6
:1009700081F09FD0B1E008959CC0672F782F882721
:10098000B85F39F0B93FCCF3869577956795B39505
:10099000D9F73EF490958095709561957F4F8F4F74
:1009A0009F4F0895E89409C097FB3EF49095809579
:1009B000709561957F4F8F4F9F4F9923A9F0F92F25
:1009C00096E9BB279395F695879577956795B795A3
:1009D000F111F8CFFAF4BB0F11F460FF1BC06F5F89
:1009E0007F4F8F4F9F4F16C0882311F096E911C09B
:1009F000772321F09EE8872F762F05C0662371F0BC
:100A000096E8862F70E060E02AF09A95660F771FCF
:100A1000881FDAF7880F9695879597F9089597F9C3
:100A20009F6780E870E060E008959FEF80EC089594
:100A300000240A94161617061806090608950024BD
:100A40000A9412161306140605060895092E039437
:100A5000000C11F4882352F0BB0F40F4BF2B11F4AB
:100A600060FF04C06F5F7F4F8F4F9F4F089557FD0A
:100A70009058440F551F59F05F3F71F04795880F0C
:100A800097FB991F61F09F3F79F0879508951216A3
:100A900013061406551FF2CF4695F1DF08C016164F
:100AA00017061806991FF1CF869571056105089400
:100AB0000895E894BB2766277727CB0197F9089517
:100AC0000AD0C4CFB5DF28F0BADF18F0952309F0BB
:100AD000A6CFABCFEFCFCBDFA8F39923D9F3552324
:100AE000C9F3950F50E0551FAA27EE27FF27BB2714
:100AF00000240894679520F4E20FF31FB41F0A1E28
:100B0000220F331F441FAA1F6695A9F7779530F46B
:100B1000F30FB41F0A1E121E08F46395330F441F0F
:100B2000AA1F221F769599F7879520F4B40F0A1E05
:100B3000121E631F440FAA1F221F331F8695A9F799
:100B4000862F712D602D11249F5750408AF0E1F0BF
:100B500088234AF0EE0FFF1FBB1F661F771F881FF9
:100B600091505040A9F79E3F510570F058CFA2CF49
:100B70005F3FECF3983EDCF3869577956795B795E4
:100B8000F795E7959F5FC1F7FE2B880F911D96950E
:0A0B9000879597F90895F894FFCFB8
:100B9A00A69BC43AFAEDEB399B3EE8D93C000080AB
:100BAA003FCDCC4C3E64646667696D71767C828801
:0A0BBA008E93979B9D9FA0A0A001C1
:00000001FF
