:100000001CC036C035C034C033C032C031C030C06F
:100010002FC02EC02DC02CC02BC02AC029C028C084
:1000200059C012C315C328C336C344C352C360C3E7
:1000300019C31DC362C313C30FC311241FBECFE571
:10004000D2E0DEBFCDBF10E0A0E6B0E0E8EAFBE022
:1000500002C005900D92AA38B107D9F710E0AAE8BE
:10006000B0E001C01D92A43AB107E1F74DD39AC5A3
:10007000C7CFDB9ADB9808958830A0F4623090F403
:100080009BB321E030E0082E01C0220F0A94EAF76A
:10009000662319F0922B9BBB03C0209529232BBB11
:1000A00081E0089580E008959BB3982381E009F4EE
:1000B00080E00895D79ADF9A86B5806886BD81E092
:1000C00086BD80B7836280BF83B7816083BF1CBE5B
:1000D00081E008951F920F920FB60F9211248F9313
:1000E0009F93F89480E48EB980919F008260809302
:1000F0009F008FB180938A0090918900992379F0B5
:100100008093A1009FEF980F923018F08B508230AF
:1001100018F481E08093A2001092890007C08093B8
:10012000A00081E08093A200809389008BEB8FB9BF
:1001300078949F918F910F900FBE0F901F901895FC
:10014000D59AD6989BB390659BBB880F880F88651E
:100150008DB980919F008E7F80939F0080919F003A
:100160008D7F80939F0080919F008B7F80939F0065
:100170008BEB8FB910928A0008959EB19F7039F071
:1001800080919F00846080939F0080E0089590910B
:100190009F009D7F90939F0090919F009B7F9093E5
:1001A0009F008FB980919F0082FB882780F991E0A2
:1001B0008927089580918A00089580919F0081FF8A
:1001C000FCCF0895009886B1866886B980E183B92E
:1001D0000895369A349BFECF85B1349A0895D39A08
:1001E000D298D098D198D298089581E087B9F1DF5C
:1001F00080939500089517B8ECDF80938D000895E3
:1002000082E287B9E6DF80938C000895BF92CF9297
:10021000DF92EF92FF920F931F93CF93DF93EC0146
:10022000B62E81E0681311C08DEC9CECACE4BEE30B
:100230008093710090937200A0937300B093740048
:1002400080E090E0A0E8BFE310C08DEC9CECACE453
:10025000BEE38093710090937200A0937300B093FB
:1002600074008AE097EDA3E2BCE380936D00909365
:100270006E00A0936F00B09370008EE398EEA9ED2E
:10028000BCE38093690090936A00A0936B00B093E5
:100290006C002DEC3CEC4CE45EE360916D007091E1
:1002A0006E0080916F0090917000EED22EE338EED8
:1002B00049ED5CE3E9D26B017C01BE01882777FD43
:1002C0008095982F78D39B01AC01C701B601FFD36D
:1002D0006B017C0100919C0010919D00B801882762
:1002E00077FD8095982F67D32EE633EA41E85EEBE1
:1002F000EED39B01AC01C701B601C6D26B017C01F4
:1003000060919A0070919B00882777FD8095982FC7
:1003100052D32EE338EE49ED5CE3D9D39B01AC0117
:10032000C701B601B1D2209196003091970040915B
:10033000980050919900A8D260939600709397000E
:10034000809398009093990003D39B0181E0B812A9
:100350006FC02D3331056CF080E090E0A0E7B2E48F
:100360008093960090939700A0939800B093990083
:1003700044C02E3131058CF486E696E6A6EEBEE347
:100380008093640090936500A0936600B09367002B
:1003900080E090E0A0ECBFE36CC0283231058CF423
:1003A0008FE892ECA5E7BBE380936400909365002F
:1003B000A0936600B09367008DEC9CECACE4BCE3CA
:1003C00013C02C333105C9F086EA9BE9A4E4BAE3F3
:1003D0008093640090936500A0936600B0936700DB
:1003E0008CE792EFA0E3BBE3809360009093610001
:1003F000A0936200B093630050C08AEF9DEEABEE15
:10040000B9E38093640090936500A0936600B09375
:10041000670086EA9BE9A4ECBAE3809360009093BE
:100420006100A0936200B09363002CE330E035C01C
:100430002531310574F080E090E0A0EAB1E48093CA
:10044000960090939700A0939800B093990024E1B0
:1004500030E08FE892ECA5E7BBE3809364009093D3
:100460006500A0936600B09367008DEC9CECACE453
:10047000BCE38093600090936100A0936200B0930E
:10048000630037FF0AC010929600109297001092F6
:1004900098001092990020E030E010939B000093A8
:1004A0009A00D0939D00C0939C00822FDF91CF9142
:1004B0001F910F91FF90EF90DF90CF90BF90089524
:1004C0008F929F92AF92BF92CF92DF92EF92FF9264
:1004D000CF93DF93EC01C0906400D0906500E09072
:1004E0006600F090670020916000309161004091BB
:1004F000620050916300C701B601C6D14B015C0197
:10050000BE01882777FD8095982F55D29B01AC01BD
:10051000C501B401DCD24B015C01F7FAF094F7F8A5
:10052000F0946091930070919400882777FD8095F6
:10053000982F41D29B01AC01C701B601C8D29B01E3
:10054000AC01C501B401A0D120918F003091900081
:10055000409191005091920097D16B017C01F8D1AC
:10056000862F16164CF4C0928F00D0929000E09225
:100570009100F09292000DC080E090E0A0E8BFE30F
:1005800080938F0090939000A0939100B09392007D
:1005900081E0D0939400C0939300DF91CF91FF90BE
:1005A000EF90DF90CF90BF90AF909F908F90089585
:1005B0008CBF08950F931F93CF93DF93082FC5E748
:1005C000D0E013DE299130E080919500602FA901E1
:1005D000481B5109CA011ADE80938E0016E00BDE1B
:1005E00020918E0030E080918D00A901481B5109B7
:1005F000CA0166DF80938B008CBF8FED9EE201976E
:10060000F1F700C00000115051F790E0C938D90748
:10061000C1F6DF91CF911F910F910895AEDDCDDD31
:1006200080918A0008958091A200882309F46BC00C
:100630008091A10090E0FC013197EC30F10508F0C9
:1006400060C0EF5EFF4F0994D6DD80918D0002C03F
:100650008091950092DD55C080919C00FBCF8091E8
:10066000A300F8CF8091A00080938E004AC08091B3
:10067000A0008093680045C06091A00070E080E019
:1006800090E097D160937100709372008093730033
:100690009093740036C06091A00070E080E090E01C
:1006A00088D160936D0070936E0080936F0090937B
:1006B000700027C06091A00070E080E090E079D1E8
:1006C0006093640070936500809366009093670068
:1006D00018C06091A00070E080E090E06AD1609363
:1006E000600070936100809362009093630009C082
:1006F0008091A0008093A30004C08091A00080930B
:100700008B001092A20008956ADD5CDDD3DC80E0EE
:1007100017DD1CBE80E28093A3007894DFE08FE8B1
:10072000C82E82ECD82E85E7E82E8BE3F82E9DECC0
:10073000892E9CEC992E9CE4A92E9CE3B92E73DFA4
:100740008091A300803209F45FC0803309F460C057
:10075000803109F06BC049DDCA9934C0DB988091C3
:10076000950090E020916800821B9109D0938E0043
:10077000C0926400D0926500E0926600F09267003B
:100780008092600090926100A0926200B09263003B
:100790000397B4F0C6E02FDD80918E0090E02091A9
:1007A0008D00821B91098CDE80938B008CBF8FEDB6
:1007B0009EE20197F1F700C00000C15061F7BFCF82
:1007C0001CBEBDCFDB9A8091680090E0209195001F
:1007D00061E0821B91091ADD80938E00C6E00BDD7B
:1007E00080918E0090E020918D00821B910968DE3F
:1007F00080938B008CBF8FED9EE20197F1F700C0D4
:100800000000C15061F79BCF80918B008CBF97CFC8
:100810001CBE109294001092930010929D001092B2
:100820009C0081E1AADC10928A0089CFF894DB9ABF
:100830008FE097E20197F1F700C00000DB988FE0AE
:1008400097E20197F1F700C00000DB9A8FE097E292
:100850000197F1F700C00000DB988FE097E2019765
:10086000F1F700C00000DB9A8FE097E20197F1F703
:1008700000C00000DB988FE097E20197F1F700C01D
:10088000000078945CCF5058BB27AA270ED0E5C053
:10089000D6D030F0DBD020F031F49F3F11F41EF4BD
:1008A000CBC00EF4E095E7FBC1C0E92FE7D080F3A1
:1008B000BA17620773078407950718F071F49EF55D
:1008C000FFC00EF4E0950B2EBA2FA02D0B01B9013D
:1008D00090010C01CA01A0011124FF27591B99F0B6
:1008E000593F50F4503E68F11A16F040A22F232FC2
:1008F000342F4427585FF3CF469537952795A79512
:10090000F0405395C9F77EF41F16BA0B620B730BB8
:10091000840BBAF09150A1F0FF0FBB1F661F771F29
:10092000881FC2F70EC0BA0F621F731F841F48F4DE
:10093000879577956795B795F7959E3F08F0B3CF64
:100940009395880F08F09927EE0F9795879508954E
:1009500004D06894B111B5C0089598D088F09F571D
:1009600090F0B92F9927B751A0F0D1F0660F771FFB
:10097000881F991F1AF0BA95C9F712C0B13081F0DB
:100980009FD0B1E008959CC0672F782F8827B85F6B
:1009900039F0B93FCCF3869577956795B395D9F73C
:1009A0003EF490958095709561957F4F8F4F9F4F46
:1009B0000895E89409C097FB3EF490958095709552
:1009C00061957F4F8F4F9F4F9923A9F0F92F96E99B
:1009D000BB279395F695879577956795B795F11110
:1009E000F8CFFAF4BB0F11F460FF1BC06F5F7F4FAD
:1009F0008F4F9F4F16C0882311F096E911C07723BF
:100A000021F09EE8872F762F05C0662371F096E8C7
:100A1000862F70E060E02AF09A95660F771F881F96
:100A2000DAF7880F9695879597F9089597F99F6754
:100A300080E870E060E008959FEF80EC0895002466
:100A40000A941616170618060906089500240A9433
:100A500012161306140605060895092E0394000CB9
:100A600011F4882352F0BB0F40F4BF2B11F460FF48
:100A700004C06F5F7F4F8F4F9F4F089557FD905871
:100A8000440F551F59F05F3F71F04795880F97FB52
:100A9000991F61F09F3F79F087950895121613060C
:100AA0001406551FF2CF4695F1DF08C0161617063B
:100AB0001806991FF1CF8695710561050894089570
:100AC000E894BB2766277727CB0197F908950AD0CA
:100AD000C4CFB5DF28F0BADF18F0952309F0A6CF10
:100AE000ABCFEFCFCBDFA8F39923D9F35523C9F3CD
:100AF000950F50E0551FAA27EE27FF27BB2700249C
:100B00000894679520F4E20FF31FB41F0A1E220F0A
:100B1000331F441FAA1F6695A9F7779530F4F30F8A
:100B2000B41F0A1E121E08F46395330F441FAA1F38
:100B3000221F769599F7879520F4B40F0A1E121E8E
:100B4000631F440FAA1F221F331F8695A9F7862F04
:100B5000712D602D11249F5750408AF0E1F08823B9
:100B60004AF0EE0FFF1FBB1F661F771F881F9150B3
:100B70005040A9F79E3F510570F058CFA2CF5F3F7C
:100B8000ECF3983EDCF3869577956795B795F795E6
:100B9000E7959F5FC1F7FE2B880F911D969587956E
:080BA00097F90895F894FFCFC6
:100BA800A69BC43AFAEDEB399B3EE8D93C0000809D
:100BB8003FCDCC4C3E64646667696D71767C8288F3
:0A0BC8008E93979B9D9FA0A0A001B3
:00000001FF
