:100000001CC036C035C0AAC033C032C0C0C030C06A
:100010002FC02EC02DC02CC02BC02AC029C028C084
:10002000CDC0A3C2A7C2BDC2CDC2DDC2EDC2FDC25A
:10003000AEC2B2C2FFC2A7C2A1C211241FBECFE589
:10004000D2E0DEBFCDBF10E0A0E6B0E0EEE9FAE01E
:1000500002C005900D92AE36B107D9F710E0AEE6BA
:10006000B0E001C01D92AA38B107E1F7EAD215C588
:10007000C7CFDB9A80E197E20197F1F7DB9880E147
:1000800097E20197F1F70895883008F5623008F596
:10009000662371F04BB321E030E0B90102C0660F76
:1000A000771F8A95E2F7CB01842B8BBB81E0089503
:1000B0004BB321E030E0B90102C0660F771F8A958B
:1000C000E2F7CB01809584238BBB81E0089580E02B
:1000D000089580E008959BB3982381E009F480E0BF
:1000E0000895D79ADF9AF89486B5806886BD81E036
:1000F00086BD789480B7836280BF83B7816083BFF9
:100100001CBE81E00895F894619A8EB585608EBD1D
:1001100084E68ABDB998919A8BB780618BBF789439
:10012000089580917B0090917C008F3F910539F07C
:1001300030F08FEF90E090937C0080937B00809173
:100140007B00089587B387BB85B7816085BF85B77E
:10015000826085BF8BB780648BBF08951F920F921A
:100160000FB60F9211248F939F93F89480917B0088
:1001700090917C00019690937C0080937B00789412
:100180009F918F910F900FBE0F901F9018951F9207
:100190000F920FB60F9211248F93F89480917B00E9
:1001A00080937D0010927C0010927B001CBC7894A0
:1001B0008F910F900FBE0F901F9018951F920F9266
:1001C0000FB60F9211248F939F93F89480E48EB909
:1001D00080916E00826080936E008FB180936F007B
:1001E00090916C00992381F080938600813031F0EA
:1001F0008C3021F0823011F08B3019F481E0809343
:10020000870010926C0007C08093850081E0809386
:10021000870080936C008BEB8FB978949F918F91BE
:100220000F900FBE0F901F901895D59AD6989BB33C
:1002300090659BBB880F880F88658DB980916E0093
:100240008E7F80936E0080916E008D7F80936E0014
:1002500080916E008B7F80936E008BEB8FB9109234
:100260006F0008952EB130E02F70307021153105E8
:1002700039F080916E00846080936E0080E0089574
:1002800090916E009D7F90936E0090916E009B7F89
:1002900090936E008FB990916E0081E092FD80E0A6
:1002A000089580916F00089580916E0081FFFCCFCA
:1002B0000895009886B1866886B90895369A349B69
:1002C000FECF84B195B1349A0895D39A8AB3887FCA
:1002D0008ABB089580917D0090E008958F929F924F
:1002E000AF92BF92CF92DF92EF92FF920F931F9344
:1002F000CF93DF93C0906800D0906900E0906A00CF
:10030000F0906B0000917E0010E080917D00081B52
:100310001109B801882777FD8095982F9FD24B014E
:100320005C01C701B60120916400309165004091E5
:10033000660050916700F7D19B01AC01C501B40183
:1003400041D34B015C016091830070918400882748
:1003500077FD8095982F82D2A7019601505832D30D
:100360009B01AC01C501B401DED120917F00309129
:1003700080004091810050918200D5D1D62FC72FA7
:10038000882EC92E862F9C2FA82DBC2D80937F00F0
:1003900090938000A0938100B0938200BC01CD01B6
:1003A00020E030E04FE753E409D318166CF480E006
:1003B00090E0AFE7B3E480937F0090938000A09338
:1003C0008100B093820017C08D2F9C2FA82DBC2DCB
:1003D000BC01CD0120E030E0A90109D288235CF402
:1003E00080E090E0DC0180937F0090938000A093F8
:1003F0008100B093820060917F00709180008091B5
:10040000810090918200F7D11093840000938300C3
:10041000862F972FDF91CF911F910F91FF90EF9033
:10042000DF90CF90BF90AF909F908F90089517B8B6
:1004300045DF80937200089582E287B93FDF8093A1
:10044000710008954F925F926F927F928F929F9268
:10045000AF92BF92CF92DF92EF92FF92CF93DF9352
:10046000C0906000D0906100E0906200F090630066
:10047000C0917300D0E080917200C81BD1096091D7
:100480007400772767FD7095872F972FE7D12B0191
:100490003C01BE01882777FD8095982FDFD14B0165
:1004A0005C01C701B601209177003091780040913E
:1004B000790050917A0037D19B01AC01C501B4019C
:1004C00081D24B015C0160917500709176008827A4
:1004D00077FD8095982FC2D1A7019601505872D20E
:1004E0009B01AC01C501B4011ED19B01AC01C3014C
:1004F000B20119D180D16093740016161CF081E00E
:100500008093740080917400D0937600C09375003E
:10051000DF91CF91FF90EF90DF90CF90BF90AF90A1
:100520009F908F907F906F905F904F900895882359
:1005300024F49091880091118FE78CBF089592DE8A
:10054000B3DEAFDE089580918700882309F478C078
:100550008091860090E001978C30910508F06EC084
:100560008F5E9F4F8F939F93089561DF80917200FC
:1005700079DE64C080917D0075DE60C05DDF8091B2
:10058000710070DE5BC0809189006CDE57C0809185
:1005900085008093730052C08091850080937E0017
:1005A0004DC06091850070E080E090E055D1DC01A5
:1005B000CB018093680090936900A0936A00B09388
:1005C0006B003CC06091850070E080E090E044D119
:1005D000DC01CB018093640090936500A0936600DA
:1005E000B09367002BC06091850070E080E090E0E0
:1005F00033D1DC01CB018093600090936100A09324
:100600006200B09363001AC06091850070E080E0E2
:1006100090E022D1DC01CB018093770090937800A9
:10062000A0937900B0937A0009C0809185008093EF
:10063000890004C08091850080937000109287002B
:10064000089543DE36DE4DDD5EDD80E0EEDD80E0E8
:100650006EDF80E280938900109272001092730026
:10066000789471DF80918900803269F0803391F055
:100670008031F9F4DCDEE6DE8093700058DF83E041
:1006800060E002DDEECF83E061E0FEDC809170008F
:100690004EDFE7CF80E04BDF1092760010927500BE
:1006A000109284001092830081E1DCDD10926F00D3
:1006B000D8CFF89483E061E0E7DC8FE097E2019720
:1006C000F1F700C0000083E060E0DEDC8FE097E23D
:1006D0000197F1F700C0000083E061E0D5DC8FE016
:1006E00097E20197F1F700C0000083E060E0CCDC06
:1006F0008FE097E20197F1F700C0000083E061E02E
:10070000C3DC8FE097E20197F1F700C0000083E0BF
:1007100060E0BADC8FE097E20197F1F700C00000DB
:1007200078949FCF5058BB27AA270ED00DC1FED07A
:1007300030F003D120F031F49F3F11F41EF4F3C0E8
:100740000EF4E095E7FBE9C0E92F0FD180F3BA176B
:10075000620773078407950718F071F49EF527C1A7
:100760000EF4E0950B2EBA2FA02D0B01B9019001CC
:100770000C01CA01A0011124FF27591B99F0593F10
:1007800050F4503E68F11A16F040A22F232F342F58
:100790004427585FF3CF469537952795A795F040A6
:1007A0005395C9F77EF41F16BA0B620B730B840BBB
:1007B000BAF09150A1F0FF0FBB1F661F771F881F73
:1007C000C2F70EC0BA0F621F731F841F48F48795CB
:1007D00077956795B795F7959E3F08F0B3CF9395BA
:1007E000880F08F09927EE0F97958795089571D097
:1007F00008F481E0089504D06894B111D9C0089537
:10080000BCD088F09F5790F0B92F9927B751A0F02E
:10081000D1F0660F771F881F991F1AF0BA95C9F794
:1008200012C0B13081F0C3D0B1E00895C0C0672FCD
:10083000782F8827B85F39F0B93FCCF38695779544
:100840006795B395D9F73EF490958095709561952D
:100850007F4F8F4F9F4F0895E89409C097FB3EF458
:1008600090958095709561957F4F8F4F9F4F9923FD
:10087000A9F0F92F96E9BB279395F695879577957B
:100880006795B795F111F8CFFAF4BB0F11F460FF3B
:100890001BC06F5F7F4F8F4F9F4F16C0882311F093
:1008A00096E911C0772321F09EE8872F762F05C0A7
:1008B000662371F096E8862F70E060E02AF09A9542
:1008C000660F771F881FDAF7880F9695879597F937
:1008D0000895990F0008550FAA0BE0E8FEEF1616D1
:1008E0001706E807F907C0F012161306E407F50724
:1008F00098F0621B730B840B950B39F40A2661F098
:10090000232B242B252B21F408950A2609F4A1403A
:10091000A6958FEF811D811D089597F99F6780E847
:1009200070E060E008959FEF80EC089500240A9441
:100930001616170618060906089500240A941216BA
:100940001306140605060895092E0394000C11F4ED
:10095000882352F0BB0F40F4BF2B11F460FF04C09A
:100960006F5F7F4F8F4F9F4F089557FD9058440FF3
:10097000551F59F05F3F71F04795880F97FB991FFE
:1009800061F09F3F79F087950895121613061406BB
:10099000551FF2CF4695F1DF08C016161706180648
:1009A000991FF1CF86957105610508940895E89423
:1009B000BB2766277727CB0197F908958ADF08F4CC
:1009C0008FEF08950AD0C0CFB1DF28F0B6DF18F05E
:1009D000952309F0A2CFA7CFEBCFC7DFA8F39923C8
:1009E000D9F35523C9F3950F50E0551FAA27EE27D9
:1009F000FF27BB2700240894679520F4E20FF31F1C
:100A0000B41F0A1E220F331F441FAA1F6695A9F7A1
:100A1000779530F4F30FB41F0A1E121E08F4639585
:100A2000330F441FAA1F221F769599F7879520F44C
:100A3000B40F0A1E121E631F440FAA1F221F331F6A
:100A40008695A9F7862F712D602D11249F57504050
:100A50008AF0E1F088234AF0EE0FFF1FBB1F661FEC
:100A6000771F881F91505040A9F79E3F510570F0A5
:100A700054CF9ECF5F3FECF3983EDCF3869577959D
:100A80006795B795F795E7959F5FC1F7FE2B880FA0
:0E0A9000911D9695879597F90895F894FFCFDC
:0E0A9E00F4FDD43D96430B3D713D8A3F0100AF
:00000001FF
