:100000001CC036C032C234C033C032C046C230C059
:100010002FC02EC02DC02CC02BC02AC029C028C084
:10002000E4C283C285C299C2A7C2B5C2C3C2D1C24B
:100030008AC28EC2D3C284C27FC211241FBECFE542
:10004000D2E0DEBFCDBF10E0A0E6B0E0E2E1FBE031
:1000500002C005900D92A637B107D9F710E0A6E7C8
:10006000B0E001C01D92A139B107E1F70AD34FC535
:10007000C7CFDB9ADB9808958830A0F4623090F403
:100080009BB321E030E0082E01C0220F0A94EAF76A
:10009000662319F0922B9BBB03C0209529232BBB11
:1000A00081E0089580E0089599B3982381E009F4F0
:1000B00080E00895D79ADF9A86B5806886BD81E092
:1000C00086BD80B7836280BF83B7816083BF1CBE5B
:1000D00081E00895D59AD6989BB390659BBB880F15
:1000E000880F88658DB980918C008E7F80938C00FD
:1000F00080918C008D7F80938C0080918C008B7F11
:1001000080938C008BEB8FB91092760008959EB18E
:100110009F7039F080918C00846080938C0080E027
:10012000089590918C009D7F90938C0090918C000D
:100130009B7F90938C008FB980918C0082FB8827E5
:1001400080F991E089270895809176000895809143
:100150008C0081FFFCCF0895009886B1866886B92F
:1001600080E183B90895369A349BFECF85B1349AE5
:100170000895D39A8AB3887F8ABB089517B8F3DFAE
:1001800080937900089582E287B9EDDF809378004B
:1001900008954F925F926F927F928F929F92AF924B
:1001A000BF92CF92DF92EF92FF920F931F93CF9364
:1001B000DF93EC018090710090907200A09073002A
:1001C000B0907400C0906900D0906A00E0906B001D
:1001D000F0906C0000918A0010918B0020916D00CE
:1001E00030916E0040916F0050917000C501B401D4
:1001F000D4D2A7019601D1D22B013C01BE018827A0
:1002000077FD8095982F64D39B01AC01C301B201A7
:1002100013D42B013C01B7FAB094B7F8B094A701FE
:100220009601C701B601B9D29B01AC01C501B40169
:10023000B3D24B015C01B801882777FD8095982FD8
:1002400047D39B01AC01C501B401F6D39B01AC01BE
:10025000C301B201A2D24B015C0160918800709190
:100260008900882777FD8095982F32D39B01AC01B8
:10027000C701B601E1D39B01AC01C501B4018DD228
:100280002091840030918500409186005091870034
:1002900084D26B017C01E9D2CB01653671057CF01B
:1002A00080E090E0A8ECB2E4809384009093850015
:1002B000A0938600B093870084E690E015C077FD98
:1002C00009C0C0928400D0928500E0928600F0922E
:1002D00087000AC010928400109285001092860058
:1002E0001092870080E090E01093890000938800CE
:1002F000D0938B00C0938A00DF91CF911F910F9113
:10030000FF90EF90DF90CF90BF90AF909F908F9035
:100310007F906F905F904F9008958F929F92AF92D1
:10032000BF92CF92DF92EF92FF92CF93DF93EC01D7
:10033000C0906400D0906500E0906600F090670087
:100340002091600030916100409162005091630003
:10035000C701B60122D24B015C01BE01882777FD9F
:100360008095982FB5D29B01AC01C501B40164D32F
:100370004B015C01F7FAF094F7F8F09460917F007C
:1003800070918000882777FD8095982FA1D29B01DE
:10039000AC01C701B60150D39B01AC01C501B4014A
:1003A000FCD16B017C0120E030E04FE753E440D307
:1003B000181684F020E030E04FE753ECC701B60197
:1003C00050D287FF0DC0C12CD12C8FE7E82E83ECD3
:1003D000F82E06C0C12CD12C9FE7E92E93E4F92E0C
:1003E00020917B0030917C0040917D0050917E00F7
:1003F000C701B601D2D16B017C013CD2862F6623A6
:1004000049F0C0927B00D0927C00E0927D00F09297
:100410007E000DC080E090E0A0E8BFE380937B0009
:1004200090937C00A0937D00B0937E0081E0D093F8
:100430008000C0937F00DF91CF91FF90EF90DF901D
:10044000CF90BF90AF909F908F900895F894619A4D
:100450008EB585608EBD8AE08ABDD198D99A919A71
:100460008BB780618BBF789408951F920F920FB65F
:100470000F9211248F939F93DB9A8091810090912A
:100480008200019690938200809381009F918F91CA
:100490000F900FBE0F901F9018951F920F920FB6DE
:1004A0000F9211248F939F938091810090918200ED
:1004B0008F3F910539F030F08FEF90E090938200FC
:1004C000809381008091810080938300109282004C
:1004D000109281001CBC9F918F910F900FBE0F90C6
:1004E0001F90189561989198109282001092810047
:1004F0001CBC0895619A919A08958CBF089507DEF7
:1005000026DE80917600089580918F00882309F47B
:100510006BC080918E0090E0FC013197EC30F105CA
:1005200008F060C0EF5EFF4F09948091790002C02F
:1005300080918300ECDD56C026DE80917A00FACFF0
:1005400080919000F7CF80918D0080937A004AC00F
:1005500080918D008093680045C060918D0070E0AF
:1005600080E090E0B3D1609371007093720080934B
:1005700073009093740036C060918D0070E080E04D
:1005800090E0A4D160936D0070936E0080936F0033
:100590009093700027C060918D0070E080E090E043
:1005A00095D160936400709365008093660090938A
:1005B000670018C060918D0070E080E090E086D107
:1005C0006093600070936100809362009093630079
:1005D00009C080918D008093900004C080918D00AF
:1005E0008093770010928F0008951F920F920FB69C
:1005F0000F9211242F933F934F935F936F937F93A9
:100600008F939F93AF93BF93CF93EF93FF93F89400
:1006100080E48EB980918C00826080938C008FB1D1
:100620008093760090917500992381F080938E00DD
:100630009FEF980F923018F08B50823020F481E0B9
:1006400080938F0061DF1092750008C080938D0049
:10065000C1E0C0938F0058DFC09375007894FF917C
:10066000EF91CF91BF91AF919F918F917F916F91BA
:100670005F914F913F912F910F900FBE0F901F9060
:10068000189577DD69DD16DD80E024DD1CBEDEDE39
:1006900080E280939000789480919000803279F18C
:1006A000803309F43FC0803109F04AC0DB9822DF73
:1006B00087E893E10197F1F700C0000013DF809114
:1006C000680090E020918300821B910962DD809395
:1006D0007A00C6E053DD80917A0090E020917900A5
:1006E000821B91091ADE809377008CBF8FED9EE20A
:1006F0000197F1F700C00000C15061F7CDCFFADEDD
:1007000087E893E10197F1F700C00000EBDE8FE08E
:1007100097E20197F1F700C00000DB9A8091770023
:100720008CBFBACF1CBE1092800010927F00109236
:100730008B0010928A0081E1EADC10927600ACCF47
:10074000F894DB9A8FE097E20197F1F700C0000080
:10075000DB988FE097E20197F1F700C00000DB9A89
:100760008FE097E20197F1F700C00000DB988FE07F
:1007700097E20197F1F700C00000DB9A8FE097E263
:100780000197F1F700C00000DB988FE097E2019736
:10079000F1F700C000007FCF5058BB27AA270ED02A
:1007A0000DC1FED030F003D120F031F49F3F11F4A1
:1007B0001EF4F3C00EF4E095E7FBE9C0E92F0FD17A
:1007C00080F3BA17620773078407950718F071F46E
:1007D0009EF527C10EF4E0950B2EBA2FA02D0B012C
:1007E000B90190010C01CA01A0011124FF27591B76
:1007F00099F0593F50F4503E68F11A16F040A22F7C
:10080000232F342F4427585FF3CF469537952795EC
:10081000A795F0405395C9F77EF41F16BA0B620BEB
:10082000730B840BBAF09150A1F0FF0FBB1F661F32
:10083000771F881FC2F70EC0BA0F621F731F841F75
:1008400048F4879577956795B795F7959E3F08F09B
:10085000B3CF9395880F08F09927EE0F979587955A
:10086000089571D008F481E0089504D06894B1111E
:10087000D9C00895BCD088F09F5790F0B92F992720
:10088000B751A0F0D1F0660F771F881F991F1AF09B
:10089000BA95C9F712C0B13081F0C3D0B1E0089564
:1008A000C0C0672F782F8827B85F39F0B93FCCF3E5
:1008B000869577956795B395D9F73EF49095809591
:1008C000709561957F4F8F4F9F4F0895E89409C0B1
:1008D00097FB3EF490958095709561957F4F8F4F73
:1008E0009F4F9923A9F0F92F96E9BB279395F69589
:1008F000879577956795B795F111F8CFFAF4BB0F07
:1009000011F460FF1BC06F5F7F4F8F4F9F4F16C06A
:10091000882311F096E911C0772321F09EE8872FF4
:10092000762F05C0662371F096E8862F70E060E0B0
:100930002AF09A95660F771F881FDAF7880F969529
:10094000879597F90895990F0008550FAA0BE0E8CD
:10095000FEEF16161706E807F907C0F01216130681
:10096000E407F50798F0621B730B840B950B39F4C1
:100970000A2661F0232B242B252B21F408950A2627
:1009800009F4A140A6958FEF811D811D089597F967
:100990009F6780E870E060E008959FEF80EC089525
:1009A00000240A941616170618060906089500244E
:1009B0000A9412161306140605060895092E0394C8
:1009C000000C11F4882352F0BB0F40F4BF2B11F43C
:1009D00060FF04C06F5F7F4F8F4F9F4F089557FD9B
:1009E0009058440F551F59F05F3F71F04795880F9D
:1009F00097FB991F61F09F3F79F087950895121634
:100A000013061406551FF2CF4695F1DF08C01616DF
:100A100017061806991FF1CF869571056105089490
:100A20000895E894BB2766277727CB0197F90895A7
:100A30008ADF08F48FEF08950AD0C0CFB1DF28F025
:100A4000B6DF18F0952309F0A2CFA7CFEBCFC7DF11
:100A5000A8F39923D9F35523C9F3950F50E0551FF7
:100A6000AA27EE27FF27BB2700240894679520F4C8
:100A7000E20FF31FB41F0A1E220F331F441FAA1FC9
:100A80006695A9F7779530F4F30FB41F0A1E121E6E
:100A900008F46395330F441FAA1F221F769599F718
:100AA000879520F4B40F0A1E121E631F440FAA1F5D
:100AB000221F331F8695A9F7862F712D602D1124D3
:100AC0009F5750408AF0E1F088234AF0EE0FFF1F55
:100AD000BB1F661F771F881F91505040A9F79E3F8C
:100AE000510570F054CF9ECF5F3FECF3983EDCF39E
:100AF000869577956795B795F795E7959F5FC1F7C9
:100B0000FE2B880F911D9695879597F90895F89477
:020B1000FFCF15
:100B120094FB1D3EBC74133D1E6666663F7B14AE9D
:060B22003F7B14AE3F0111
:00000001FF
