:100000001CC036C08EC234C033C032C0A2C230C0A1
:100010002FC02EC02DC02CC02BC02AC029C028C084
:1000200041C3DFC2E2C2F6C204C312C320C32EC35F
:10003000E7C2EBC230C3E1C2DCC211241FBECFE570
:10004000D2E0DEBFCDBF10E0A0E6B0E0E4E7FBE029
:1000500002C005900D92A237B107D9F710E0A2E7D0
:10006000B0E001C01D92AB38B107E1F767D380C59E
:10007000C7CFDB9ADB9808958830A0F4623090F403
:100080009BB321E030E0082E01C0220F0A94EAF76A
:10009000662319F0922B9BBB03C0209529232BBB11
:1000A00081E0089580E0089599B3982381E009F4F0
:1000B00080E00895D79ADF9A86B5806886BD81E092
:1000C00086BD80B7836280BF83B7816083BF1CBE5B
:1000D00081E00895D59AD6989BB390659BBB880F15
:1000E000880F88658DB9809186008E7F8093860009
:1000F000809186008D7F80938600809186008B7F23
:10010000809386008BEB8FB91092720008959EB198
:100110009F7039F08091860084608093860080E033
:100120000895909186009D7F90938600909186001F
:100130009B7F909386008FB98091860082FB8827F1
:1001400080F991E089270895809172000895809147
:10015000860081FFFCCF0895009886B1866886B935
:1001600080E183B90895369A349BFECF85B1349AE5
:100170000895D39A8AB3887F8ABB089517B8F3DFAE
:1001800080937500089582E287B9EDDF8093740053
:1001900008958F929F92AF92BF92CF92DF92EF928B
:1001A000FF92CF93DF93EC01C0906D00D0906E0072
:1001B000E0906F00F09070002091690030916A002B
:1001C00040916B0050916C00C701B60143D34B01C5
:1001D0005C01BE01882777FD8095982FD2D39B01C3
:1001E000AC01C501B40159D44B015C01F7FAF0949C
:1001F000F7F8F0946091840070918500882777FD6E
:100200008095982FBED39B01AC01C701B60145D4A0
:100210009B01AC01C501B4011DD320918000309138
:100220008100409182005091830014D3609380003C
:100230007093810080938200909383006FD39B0121
:10024000613A71057CF080E090E0A0E2B3E4809335
:10025000800090938100A0938200B093830020EAF5
:1002600030E0C8C077FF0BC0109280001092810070
:10027000109282001092830020E030E003C06F30C3
:1002800071058CF48CEE91E5A8E3BEE380936400E5
:1002900090936500A0936600B093670088E79AE7A3
:1002A000A5E4BFE39FC0643171058CF48BE19FE24C
:1002B000ADEDBDE38093640090936500A09366006C
:1002C000B09367008DE599EFACEEBEE38BC068326A
:1002D00071058CF48CEB94E7A3E1BDE3809364009B
:1002E00090936500A0936600B093670084E99BEF4C
:1002F000ADE1BEE377C06C3371058CF48AEF9DEEFF
:10030000ABE6BCE38093640090936500A093660025
:10031000B093670089EB95ECACE7BDE363C0603553
:1003200071058CF48AEF9DEEABE6BBE3809364002D
:1003300090936500A0936600B093670089EB95ECFD
:10034000ACE7BCE34FC0643671058CF489EC9EE8E1
:10035000ADE8BAE38093640090936500A0936600D3
:10036000B09367008EE593E6A7E9BBE33BC068372F
:1003700071058CF481E691ECADE7B9E380936400FC
:1003800090936500A0936600B093670087E998E3B7
:10039000A2E7BAE327C06C3871058CF48FE09EE7C2
:1003A000A2EEB8E38093640090936500A09366008A
:1003B000B093670087E998E3A2EFB9E313C0603A0E
:1003C0007105C1F085EC96E7A7E7B8E38093640078
:1003D00090936500A0936600B093670087E998E367
:1003E000A2E7B9E38093600090936100A09362005C
:1003F000B0936300D0938500C0938400822FDF9177
:10040000CF91FF90EF90DF90CF90BF90AF909F90F3
:100410008F9008958F929F92AF92BF92CF92DF926A
:10042000EF92FF92CF93DF93EC01C0906400D090E5
:100430006500E0906600F0906700209160003091C8
:1004400061004091620050916300C701B60102D281
:100450004B015C01BE01882777FD8095982F91D2D2
:100460009B01AC01C501B40118D34B015C01F7FA43
:10047000F094F7F8F09460917B0070917C008827ED
:1004800077FD8095982F7DD29B01AC01C701B60105
:1004900004D39B01AC01C501B401DCD120917700EC
:1004A000309178004091790050917A00D3D16B015E
:1004B0007C0134D2862F16164CF4C0927700D0926D
:1004C0007800E0927900F0927A000DC080E090E030
:1004D000A0E8BFE38093770090937800A093790021
:1004E000B0937A0081E0D0937C00C0937B00DF91D1
:1004F000CF91FF90EF90DF90CF90BF90AF909F9003
:100500008F900895F894619A8EB585608EBD8AE0CB
:100510008ABDD198D99A919A8BB780618BBF789414
:1005200008951F920F920FB60F9211248F939F93ED
:10053000DB9A80917D0090917E00019690937E00E1
:1005400080937D009F918F910F900FBE0F901F9011
:1005500018951F920F920FB60F9211248F939F93AD
:1005600080917D0090917E008F3F910539F030F0B1
:100570008FEF90E090937E0080937D0080917D00CE
:1005800080937F0010927E0010927D001CBC9F9192
:100590008F910F900FBE0F901F90189561989198B2
:1005A00010927E0010927D001CBC0895619A919A71
:1005B00008958CBF0895ABDDCADD80917200089567
:1005C00080918900882309F46CC08091880090E0B4
:1005D000FC013197EC30F10508F061C0EF5EFF4F90
:1005E0000994CCDD8091750002C080917F008FDD81
:1005F00056C0C9DD80917600FACF80918A00F7CF8E
:1006000080918700809376004AC080918700809314
:10061000680045C06091870070E080E090E0AFD155
:1006200060936D0070936E0080936F0090937000E4
:1006300036C06091870070E080E090E0A0D16093C8
:10064000690070936A0080936B0090936C0027C0E0
:100650006091870070E080E090E091D16093640049
:1006600070936500809366009093670018C0609156
:10067000870070E080E090E082D16093600070932A
:100680006100809362009093630009C080918700AD
:1006900080938A0004C08091870080937300109239
:1006A000890008951F920F920FB60F9211242F9375
:1006B0003F934F935F936F937F938F939F93AF93EA
:1006C000BF93CF93EF93FF93F89480E48EB980911A
:1006D00086008260809386008FB180937200909133
:1006E0007100992381F0809388009FEF980F9230DA
:1006F00018F08B50823020F481E08093890060DF15
:100700001092710008C080938700C1E0C0938900F7
:1007100057DFC09371007894FF91EF91CF91BF9113
:10072000AF919F918F917F916F915F914F913F9189
:100730002F910F900FBE0F901F9018951ADD0CDDB2
:10074000B9DC80E0C7DC1CBEDDDE80E280938A007D
:10075000789480918A00803279F1803309F43FC027
:10076000803109F04AC0DB9821DF87E893E10197E7
:10077000F1F700C0000012DF8091680090E0209146
:100780007F00821B910905DD80937600C6E0F6DCD0
:100790008091760090E020917500821B91093ADEED
:1007A000809373008CBF8FED9EE20197F1F700C03C
:1007B0000000C15061F7CDCFF9DE87E893E10197E2
:1007C000F1F700C00000EADE8FE097E20197F1F751
:1007D00000C00000DB9A809173008CBFBACF1CBEB2
:1007E00010927C0010927B00109285001092840081
:1007F00081E18DDC10927200ACCFF894DB9A8FE02F
:1008000097E20197F1F700C00000DB988FE097E2D4
:100810000197F1F700C00000DB9A8FE097E20197A3
:10082000F1F700C00000DB988FE097E20197F1F745
:1008300000C00000DB9A8FE097E20197F1F700C05B
:100840000000DB988FE097E20197F1F700C000000D
:100850007FCF5058BB27AA270ED0E5C0D6D030F0A6
:10086000DBD020F031F49F3F11F41EF4CBC00EF426
:10087000E095E7FBC1C0E92FE7D080F3BA17620724
:1008800073078407950718F071F49EF5FFC00EF406
:10089000E0950B2EBA2FA02D0B01B90190010C0190
:1008A000CA01A0011124FF27591B99F0593F50F4A8
:1008B000503E68F11A16F040A22F232F342F442700
:1008C000585FF3CF469537952795A795F0405395F8
:1008D000C9F77EF41F16BA0B620B730B840BBAF0C8
:1008E0009150A1F0FF0FBB1F661F771F881FC2F733
:1008F0000EC0BA0F621F731F841F48F48795779547
:100900006795B795F7959E3F08F0B3CF9395880FFD
:1009100008F09927EE0F97958795089504D068946D
:10092000B111B5C0089598D088F09F5790F0B92FB5
:100930009927B751A0F0D1F0660F771F881F991F34
:100940001AF0BA95C9F712C0B13081F09FD0B1E06A
:1009500008959CC0672F782F8827B85F39F0B93F7A
:10096000CCF3869577956795B395D9F73EF4909536
:100970008095709561957F4F8F4F9F4F0895E894B4
:1009800009C097FB3EF490958095709561957F4FD7
:100990008F4F9F4F9923A9F0F92F96E9BB27939585
:1009A000F695879577956795B795F111F8CFFAF495
:1009B000BB0F11F460FF1BC06F5F7F4F8F4F9F4FC6
:1009C00016C0882311F096E911C0772321F09EE824
:1009D000872F762F05C0662371F096E8862F70E08A
:1009E00060E02AF09A95660F771F881FDAF7880F64
:1009F0009695879597F9089597F99F6780E870E035
:100A000060E008959FEF80EC089500240A94161684
:100A1000170618060906089500240A9412161306EC
:100A2000140605060895092E0394000C11F488237A
:100A300052F0BB0F40F4BF2B11F460FF04C06F5F96
:100A40007F4F8F4F9F4F089557FD9058440F551F6C
:100A500059F05F3F71F04795880F97FB991F61F040
:100A60009F3F79F087950895121613061406551FB7
:100A7000F2CF4695F1DF08C0161617061806991F23
:100A8000F1CF86957105610508940895E894BB2718
:100A900066277727CB0197F908950AD0C4CFB5DF31
:100AA00028F0BADF18F0952309F0A6CFABCFEFCF2F
:100AB000CBDFA8F39923D9F35523C9F3950F50E061
:100AC000551FAA27EE27FF27BB2700240894679508
:100AD00020F4E20FF31FB41F0A1E220F331F441F1E
:100AE000AA1F6695A9F7779530F4F30FB41F0A1E75
:100AF000121E08F46395330F441FAA1F221F769518
:100B000099F7879520F4B40F0A1E121E631F440F35
:100B1000AA1F221F331F8695A9F7862F712D602DDE
:100B200011249F5750408AF0E1F088234AF0EE0FDD
:100B3000FF1FBB1F661F771F881F91505040A9F7EA
:100B40009E3F510570F058CFA2CF5F3FECF3983E27
:100B5000DCF3869577956795B795F795E7959F5F51
:100B6000C1F7FE2B880F911D9695879597F90895EB
:040B7000F894FFCF27
:100B74009738F2390F7EE238F01B2F5D3DEC513887
:020B84003D0131
:00000001FF
