:100000001CC036C035C034C033C032C031C030C06F
:100010002FC02EC02DC02CC02BC02AC029C028C084
:1000200059C00BC20EC223C231C23FC24DC25BC215
:1000300014C218C25DC20EC209C211241FBECFE590
:10004000D2E0DEBFCDBF10E0A0E6B0E0ECEDF8E01E
:1000500002C005900D92A237B107D9F710E0A2E7D0
:10006000B0E001C01D92A938B107E1F748D234C40D
:10007000C7CFDB9ADB9808958830A0F4623090F403
:100080009BB321E030E0082E01C0220F0A94EAF76A
:10009000662319F0922B9BBB03C0209529232BBB11
:1000A00081E0089580E008959BB3982381E009F4EE
:1000B00080E00895D79ADF9A86B5806886BD81E092
:1000C00086BD80B7836280BF83B7816083BF1CBE5B
:1000D00081E008951F920F920FB60F9211248F9313
:1000E0009F93F89480E48EB980918400826080931D
:1000F00084008FB18093720090917100992379F000
:10010000809386009FEF980F923018F08B508230CA
:1001100018F481E0809387001092710007C08093EB
:10012000850081E080938700809371008BEB8FB90D
:1001300078949F918F910F900FBE0F901F901895FC
:10014000D59AD6989BB390659BBB880F880F88651E
:100150008DB9809184008E7F80938400809184008B
:100160008D7F80938400809184008B7F80938400B6
:100170008BEB8FB91092720008959EB19F7039F089
:100180008091840084608093840080E00895909141
:1001900084009D7F90938400909184009B7F909336
:1001A00084008FB98091840082FB882780F991E0D8
:1001B000892708958091720008958091840081FFBD
:1001C000FCCF0895009886B1866886B980E183B92E
:1001D0000895369A349BFECF85B1349A0895D39A08
:1001E0008AB3887F8ABB089581E087B9F2DF809364
:1001F0007C00089517B8EDDF80937500089582E2C2
:1002000087B9E7DF8093740008958F929F92AF9231
:10021000BF92CF92DF92EF92FF92CF93DF93EC01E8
:10022000C0906D00D0906E00E0906F00F090700074
:100230002091690030916A0040916B0050916C00F0
:10024000C701B601BBD14B015C01BE01882777FD18
:100250008095982F4AD29B01AC01C501B401D1D23F
:100260004B015C01F7FAF094F7F8F094609182008A
:1002700070918300882777FD8095982F36D29B0157
:10028000AC01C701B601BDD29B01AC01C501B401EF
:1002900095D120917E0030917F0040918000509157
:1002A00081008CD16B017C01EDD1CB016F3F7105D9
:1002B00081F07CF080E090E0AFE7B3E480937E00D3
:1002C00090937F00A0938000B09381008FEF90E027
:1002D00015C077FD09C0C0927E00D0927F00E092E9
:1002E0008000F09281000AC010927E0010927F0080
:1002F000109280001092810080E090E0D093830003
:10030000C0938200DF91CF91FF90EF90DF90CF906C
:10031000BF90AF909F908F9008958F929F92AF92D1
:10032000BF92CF92DF92EF92FF92CF93DF93EC01D7
:10033000C0906500D0906600E0906700F090680083
:1003400020916100309162004091630050916400FF
:10035000C701B60133D14B015C01BE01882777FD8F
:100360008095982FC2D19B01AC01C501B40149D23F
:100370004B015C01F7FAF094F7F8F09460917A0081
:1003800070917B00882777FD8095982FAED19B01D7
:10039000AC01C701B60135D29B01AC01C501B40166
:1003A0000DD12091760030917700409178005091E6
:1003B000790004D16B017C0165D1862F16164CF4AF
:1003C000C0927600D0927700E0927800F0927900A7
:1003D0000DC080E090E0A0E8BFE3809376009093AA
:1003E0007700A0937800B093790081E0D0937B00F0
:1003F000C0937A00DF91CF91FF90EF90DF90CF9084
:10040000BF90AF909F908F9008958CBF0895B5DEF8
:10041000D4DE80917200089580918700882309F4CA
:100420006DC08091860090E0FC013197EC30F105C1
:1004300008F062C0EF5EFF4F0994DCDE809175002A
:1004400003C0D2DE80917C0098DE56C0D8DE809159
:100450007400FACF80918800F7CF80918500809357
:1004600060004AC08091850080937D0045C0609106
:10047000850070E080E090E036D160936D0070936D
:100480006E0080936F009093700036C0609185007D
:1004900070E080E090E027D16093690070936A007B
:1004A00080936B0090936C0027C06091850070E092
:1004B00080E090E018D160936500709366008093AF
:1004C00067009093680018C06091850070E080E03C
:1004D00090E009D1609361007093620080936300A3
:1004E0009093640009C0809185008093880004C0C7
:1004F00080918500809373001092870008956FDECD
:1005000061DED8DD80E01CDE1CBE80E280938800C6
:10051000789482DF80918800803281F0803399F076
:100520008031F9F467DE8091600090E020917500E1
:10053000821B9109F2DE8093730003C0DB9A8091E5
:1005400073008CBFE6CF1CBE10927B0010927A0025
:10055000109283001092820081E10FDE10927200EF
:10056000D8CFF894DB9A8FE097E20197F1F700C0BB
:100570000000DB988FE097E20197F1F700C00000E0
:10058000DB9A8FE097E20197F1F700C00000DB985B
:100590008FE097E20197F1F700C00000DB9A8FE04F
:1005A00097E20197F1F700C00000DB988FE097E237
:1005B0000197F1F700C00000ABCF5058BB27AA2726
:1005C0000ED0E5C0D6D030F0DBD020F031F49F3F24
:1005D00011F41EF4CBC00EF4E095E7FBC1C0E92F87
:1005E000E7D080F3BA17620773078407950718F0FE
:1005F00071F49EF5FFC00EF4E0950B2EBA2FA02DDE
:100600000B01B90190010C01CA01A0011124FF27BF
:10061000591B99F0593F50F4503E68F11A16F040BA
:10062000A22F232F342F4427585FF3CF46953795B9
:100630002795A795F0405395C9F77EF41F16BA0B7E
:10064000620B730B840BBAF09150A1F0FF0FBB1F2C
:10065000661F771F881FC2F70EC0BA0F621F731F75
:10066000841F48F4879577956795B795F7959E3FD2
:1006700008F0B3CF9395880F08F09927EE0F979560
:100680008795089504D06894B111B5C0089598D0A5
:1006900088F09F5790F0B92F9927B751A0F0D1F06B
:1006A000660F771F881F991F1AF0BA95C9F712C0F5
:1006B000B13081F09FD0B1E008959CC0672F782FB2
:1006C0008827B85F39F0B93FCCF386957795679561
:1006D000B395D9F73EF490958095709561957F4FCD
:1006E0008F4F9F4F0895E89409C097FB3EF4909573
:1006F0008095709561957F4F8F4F9F4F9923A9F0FB
:10070000F92F96E9BB279395F69587957795679589
:10071000B795F111F8CFFAF4BB0F11F460FF1BC0CD
:100720006F5F7F4F8F4F9F4F16C0882311F096E960
:1007300011C0772321F09EE8872F762F05C066230E
:1007400071F096E8862F70E060E02AF09A95660FC7
:10075000771F881FDAF7880F9695879597F9089580
:1007600097F99F6780E870E060E008959FEF80EC64
:10077000089500240A941616170618060906089507
:1007800000240A9412161306140605060895092E6D
:100790000394000C11F4882352F0BB0F40F4BF2BDC
:1007A00011F460FF04C06F5F7F4F8F4F9F4F08951C
:1007B00057FD9058440F551F59F05F3F71F0479512
:1007C000880F97FB991F61F09F3F79F087950895F7
:1007D000121613061406551FF2CF4695F1DF08C016
:1007E000161617061806991FF1CF86957105610533
:1007F00008940895E894BB2766277727CB0197F9DB
:1008000008950AD0C4CFB5DF28F0BADF18F09523D9
:1008100009F0A6CFABCFEFCFCBDFA8F39923D9F365
:100820005523C9F3950F50E0551FAA27EE27FF2740
:10083000BB2700240894679520F4E20FF31FB41F30
:100840000A1E220F331F441FAA1F6695A9F777952A
:1008500030F4F30FB41F0A1E121E08F46395330F11
:10086000441FAA1F221F769599F7879520F4B40F8D
:100870000A1E121E631F440FAA1F221F331F8695D4
:10088000A9F7862F712D602D11249F5750408AF0B3
:10089000E1F088234AF0EE0FFF1FBB1F661F771F92
:1008A000881F91505040A9F79E3F510570F058CFD6
:1008B000A2CF5F3FECF3983EDCF386957795679582
:1008C000B795F795E7959F5FC1F7FE2B880F911DB0
:0C08D0009695879597F90895F894FFCF4E
:1008DC000FAC8BDB3BF4FDD43D96430B3D713D8A55
:0208EC003F01CA
:00000001FF
