:100000001CC036C035C034C033C032C031C030C06F
:100010002FC02EC02DC02CC02BC02AC029C028C084
:10002000A7C246C249C25CC26AC278C286C294C232
:100030004DC251C296C247C243C211241FBECFE572
:10004000D2E0DEBFCDBF10E0A0E6B0E0EEE0FAE027
:1000500002C005900D92AC38B107D9F710E0ACE8BA
:10006000B0E001C01D92A53AB107E1F7CDD2CDC4F1
:10007000C7CFDB9ADB9808958830A0F4623090F403
:100080009BB321E030E0082E01C0220F0A94EAF76A
:10009000662319F0922B9BBB03C0209529232BBB11
:1000A00081E0089580E008959BB3982381E009F4EE
:1000B00080E00895D79ADF9A86B5806886BD81E092
:1000C00086BD80B7836280BF83B7816083BF1CBE5B
:1000D00081E00895D59AD6989BB390659BBB880F15
:1000E000880F88658DB98091A0008E7F8093A000D5
:1000F0008091A0008D7F8093A0008091A0008B7FD5
:100100008093A0008BEB8FB910928C0008959EB164
:100110009F7039F08091A00084608093A00080E0FF
:1001200008959091A0009D7F9093A0009091A000D1
:100130009B7F9093A0008FB98091A00082FB8827BD
:1001400080F991E08927089580918C00089580912D
:10015000A00081FFFCCF0895009886B1866886B91B
:1001600080E183B90895369A349BFECF85B1349AE5
:100170000895D39AD298D098D198D298089581E0D2
:1001800087B9F1DF80939600089517B8ECDF80936C
:100190008F00089582E287B9E6DF80938E0008958C
:1001A0004F925F926F927F928F929F92AF92BF9287
:1001B000CF92DF92EF92FF920F931F93CF93DF9333
:1001C000EC018090730090907400A0907500B09046
:1001D0007600C0906B00D0906C00E0906D00F090C5
:1001E0006E0000919D0010919E0020916F00309153
:1001F00070004091710050917200C501B40177D236
:10020000A701960174D22B013C01BE01882777FD1E
:100210008095982F03D39B01AC01C301B2018AD30F
:100220002B013C01B7FAB094B7F8B094A70196013E
:10023000C701B6015CD29B01AC01C501B40156D225
:100240004B015C01B801882777FD8095982FE6D295
:100250009B01AC01C501B4016DD39B01AC01C3018D
:10026000B20145D24B015C0160919B0070919C00F2
:10027000882777FD8095982FD1D29B01AC01C701CB
:10028000B60158D39B01AC01C501B40130D2209115
:100290009700309198004091990050919A0027D290
:1002A0006B017C0188D2CB016A3171057CF080E062
:1002B00090E0A8ECB1E48093970090939800A0930D
:1002C0009900B0939A0089E190E015C077FD09C0CC
:1002D000C0929700D0929800E0929900F0929A0014
:1002E0000AC01092970010929800109299001092F4
:1002F0009A0080E090E010939C0000939B00D093C4
:100300009E00C0939D00DF91CF911F910F91FF90B0
:10031000EF90DF90CF90BF90AF909F908F907F90A5
:100320006F905F904F9008958F929F92AF92BF927F
:10033000CF92DF92EF92FF92CF93DF93EC01C090C8
:100340006500D0906600E0906700F0906800209112
:100350006100309162004091630050916400C701D8
:10036000B601C5D14B015C01BE01882777FD8095A0
:10037000982F54D29B01AC01C501B401DBD24B01D3
:100380005C01F7FAF094F7F8F094609194007091A2
:100390009500882777FD8095982F40D29B01AC016E
:1003A000C701B601C7D29B01AC01C501B4019FD101
:1003B00020919000309191004091920050919300D3
:1003C00096D16B017C01F7D1862F16164CF4C092A2
:1003D0009000D0929100E0929200F09293000DC0B4
:1003E00080E090E0A0E8BFE38093900090939100BC
:1003F000A0939200B093930081E0D0939500C093B6
:100400009400DF91CF91FF90EF90DF90CF90BF905D
:10041000AF909F908F9008958CBF08950F931F9376
:10042000CF93DF93082FC7E7D0E0A9DE299130E012
:1004300080919600602FA901481B5109CA01B0DEC6
:100440008093600016E0A1DE2091600030E0809192
:100450008F00A901481B5109CA0166DF80938D00F6
:100460008CBF8FED9EE20197F1F700C000001150A4
:1004700051F790E0CB38D907C1F6DF91CF911F91AA
:100480000F91089544DE63DE80918C000895809181
:10049000A300882309F46BC08091A20090E0FC01C6
:1004A0003197EC30F10508F060C0EF5EFF4F099422
:1004B0006CDE80918F0002C08091960028DE55C0CE
:1004C00080918D00FBCF8091A400F8CF8091A10096
:1004D000809360004AC08091A10080936A0045C06B
:1004E0006091A10070E080E090E096D1609373008D
:1004F00070937400809375009093760036C060917D
:10050000A10070E080E090E087D160936F0070936D
:100510007000809371009093720027C06091A100D9
:1005200070E080E090E078D16093650070936600A1
:10053000809367009093680018C06091A10070E0FC
:1005400080E090E069D160936100709362008093D5
:1005500063009093640009C08091A1008093A4007F
:1005600004C08091A10080938D001092A300089593
:100570001F920F920FB60F9211242F933F934F9318
:100580005F936F937F938F939F93AF93BF93CF931B
:10059000EF93FF93F89480E48EB98091A00082607D
:1005A0008093A0008FB180938C0090918B00992351
:1005B00081F08093A2009FEF980F923018F08B503B
:1005C000823020F481E08093A30061DF10928B00E1
:1005D00008C08093A100C1E0C093A30058DFC0937E
:1005E0008B007894FF91EF91CF91BF91AF919F9144
:1005F0008F917F916F915F914F913F912F910F90CC
:100600000FBE0F901F901895B4DDA6DD53DD80E07E
:1006100061DD10928D001CBE80E28093A40078946E
:10062000C8E28091A400803211F1803321F1803141
:1006300081F5A5DDCA9B09C0DB9880916A0090E036
:1006400020919600821B910908C08091960090E04D
:1006500020916A00821B9109DB9A039724F0C093D2
:100660008D00CCBFDECF10928D001CBEDACF809102
:100670008D008CBFD6CF1CBE1092950010929400B6
:1006800010929E0010929D0081E141DD10928C003D
:10069000C8CFF894DB9A8FE097E20197F1F700C09A
:1006A0000000DB988FE097E20197F1F700C00000AF
:1006B000DB9A8FE097E20197F1F700C00000DB982A
:1006C0008FE097E20197F1F700C00000DB9A8FE01E
:1006D00097E20197F1F700C00000DB988FE097E206
:1006E0000197F1F700C0000078949BCF5058BB27CA
:1006F000AA270ED0E5C0D6D030F0DBD020F031F400
:100700009F3F11F41EF4CBC00EF4E095E7FBC1C08F
:10071000E92FE7D080F3BA176207730784079507BC
:1007200018F071F49EF5FFC00EF4E0950B2EBA2F71
:10073000A02D0B01B90190010C01CA01A0011124E7
:10074000FF27591B99F0593F50F4503E68F11A1693
:10075000F040A22F232F342F4427585FF3CF469524
:1007600037952795A795F0405395C9F77EF41F1646
:10077000BA0B620B730B840BBAF09150A1F0FF0F10
:10078000BB1F661F771F881FC2F70EC0BA0F621FFC
:10079000731F841F48F4879577956795B795F795EC
:1007A0009E3F08F0B3CF9395880F08F09927EE0F7E
:1007B00097958795089504D06894B111B5C00895B0
:1007C00098D088F09F5790F0B92F9927B751A0F093
:1007D000D1F0660F771F881F991F1AF0BA95C9F7D5
:1007E00012C0B13081F09FD0B1E008959CC0672F56
:1007F000782F8827B85F39F0B93FCCF38695779585
:100800006795B395D9F73EF490958095709561956D
:100810007F4F8F4F9F4F0895E89409C097FB3EF498
:1008200090958095709561957F4F8F4F9F4F99233D
:10083000A9F0F92F96E9BB279395F69587957795BB
:100840006795B795F111F8CFFAF4BB0F11F460FF7B
:100850001BC06F5F7F4F8F4F9F4F16C0882311F0D3
:1008600096E911C0772321F09EE8872F762F05C0E7
:10087000662371F096E8862F70E060E02AF09A9582
:10088000660F771F881FDAF7880F9695879597F977
:10089000089597F99F6780E870E060E008959FEF02
:1008A00080EC089500240A94161617061806090607
:1008B000089500240A9412161306140605060895D6
:1008C000092E0394000C11F4882352F0BB0F40F45E
:1008D000BF2B11F460FF04C06F5F7F4F8F4F9F4F9E
:1008E000089557FD9058440F551F59F05F3F71F020
:1008F0004795880F97FB991F61F09F3F79F0879587
:100900000895121613061406551FF2CF4695F1DF0F
:1009100008C0161617061806991FF1CF869571059F
:10092000610508940895E894BB2766277727CB01D3
:1009300097F908950AD0C4CFB5DF28F0BADF18F0D0
:10094000952309F0A6CFABCFEFCFCBDFA8F3992348
:10095000D9F35523C9F3950F50E0551FAA27EE2769
:10096000FF27BB2700240894679520F4E20FF31FAC
:10097000B41F0A1E220F331F441FAA1F6695A9F732
:10098000779530F4F30FB41F0A1E121E08F4639516
:10099000330F441FAA1F221F769599F7879520F4DD
:1009A000B40F0A1E121E631F440FAA1F221F331FFB
:1009B0008695A9F7862F712D602D11249F575040E1
:1009C0008AF0E1F088234AF0EE0FFF1FBB1F661F7D
:1009D000771F881F91505040A9F79E3F510570F036
:1009E00058CFA2CF5F3FECF3983EDCF38695779526
:1009F0006795B795F795E7959F5FC1F7FE2B880F31
:0E0A0000911D9695879597F90895F894FFCF6C
:100A0E00149BE5323C0AD7233B0696EA758B390ACE
:100A1E00D7233C6F12033B64646667696D71767C05
:0C0A2E0082888E93979B9D9FA0A0A00142
:00000001FF
